:1000000000800020BD01000031140000F113000049
:10001000F1130000F1130000F1130000F1130000D0
:10002000F1130000F1130000F1130000311400007F
:1000300031140000F1130000652500006D2500005B
:10004000311400003114000031140000311400009C
:10005000311400003114000031140000311400008C
:10006000311400003114000031140000311400007C
:10007000311400003114000031140000311400006C
:10008000311400003114000031140000311400005C
:10009000311400003114000031140000311400004C
:1000A000311400003114000031140000311400003C
:1000B000311400003114000031140000311400002C
:1000C000311400003114000031140000311400001C
:1000D000311400003114000031140000311400000C
:1000E00031140000311400003114000031140000FC
:1000F00031140000311400003114000031140000EC
:1001000031140000311400003114000031140000DB
:1001100031140000311400003114000031140000CB
:1001200031140000311400003114000031140000BB
:1001300031140000311400003114000031140000AB
:10014000311400003114000031140000311400009B
:10015000311400003114000031140000311400008B
:1001600031140000E91700003114000031140000C0
:10017000311400003114000031140000311400006B
:10018000311400003114000031140000311400005B
:10019000311400003114000031140000311400004B
:1001A000311400003114000031140000311400003B
:1001B000311400003114000031140000574B4CF290
:1001C000205210B5DA814DF62812DA8100BF00BF47
:1001D00001F032F9524B4FF010621A63514A9A63A0
:1001E000514ADA63514A136913F4807303D153619E
:1001F0004FF4A85313614E4B9A78110703D59A78A0
:1002000042F008029A704B4B4B482A221A704B4B13
:10021000DA1C121AC11E22F00302994288BF002282
:10022000474901F011F8474B4748DA1C121AC11E22
:1002300022F00302994288BF0022002102F04EFA08
:10024000424943484FF4DE7200F0FEFF414B424A00
:10025000802103F8011B9342FBD14FF0E0233C4A7D
:10026000C3F8082D3D4B8A221A70A3F5805324222F
:100270005A70A0221A709A799207FCD59A79D406FE
:10028000FCD4374B9A7902F00C02082AFAD10522E5
:100290001A7143225A719A799006FCD5304A9379A3
:1002A0005906FCD51E4B4FF08171596405219964A4
:1002B00020211170917901F00C010C29FAD1294A01
:1002C0005A604FF0E023284A5A6100229A610722BF
:1002D0001A61264AC3F8202D62B601F0F3F8134BD9
:1002E0005B69DA0705D5224801F0E0F8214B224A84
:1002F000DA61224B1B785B0609D51E4C1E4BE26966
:100300009A4204D11A4801F0D1F80023E36101F0C8
:1003100099F802F03BFA00F08EFFFEE7002005405E
:1003200000800440823F04000100002B00D0034005
:1003300000D0074000E007401C89FF1FE489FF1F31
:10034000BC2A0000388EFF1FE489FF1F0000000058
:100350000084FF1F00E400E05FE400E0005006407E
:1003600000400640C01005003F1901000000202099
:10037000BEB1706500E00340A5C3945A00F0074089
:10038000FFFFFFFFFFFFFFFFFFFFFFFFFFFFFFFF7D
:10039000FFFFFFFFFFFFFFFFFFFFFFFFFFFFFFFF6D
:1003A000FFFFFFFFFFFFFFFFFFFFFFFFFFFFFFFF5D
:1003B000FFFFFFFFFFFFFFFFFFFFFFFFFFFFFFFF4D
:1003C000FFFFFFFFFFFFFFFFFFFFFFFFFFFFFFFF3D
:1003D000FFFFFFFFFFFFFFFFFFFFFFFFFFFFFFFF2D
:1003E000FFFFFFFFFFFFFFFFFFFFFFFFFFFFFFFF1D
:1003F000FFFFFFFFFFFFFFFFFFFFFFFFFFFFFFFF0D
:10040000FFFFFFFFFFFFFFFFFFFFFFFFDEF9FFFF23
:100410000548064B1B1AD90F01EBA301491002D066
:10042000034B03B118477047E489FF1FE489FF1F9E
:100430000000000008B5054B1BB105490548AFF3A6
:100440000080BDE80840FFF7E3BF00BF00000000E8
:10045000E489FF1FB42A0000F8B5274B1E68274C1B
:10046000274F1D4604E0B3F5FA6F10D801F0CCFF1A
:1004700001F0CAFF2378002B33D03B7813F0010F33
:100480002FD02B681F4A12689B1A0E2B29D91E4C9D
:100490006421204600F0CDFE23685B6808221B49DA
:1004A00020469847204600F067FE194800F0E2F821
:1004B0000024184E164D32462146284600F0A0FA78
:1004C0000134282CF7D1104C23685B681D22124997
:1004D00020469847204600F04FFE0D4800F01EFAD7
:1004E000F8BD2B689B1B2278002ABCD140F2EE227B
:1004F0009342BBD9CBE700BF6C8BFF1F4C8CFF1F17
:10050000708CFF1F748CFF1F2489FF1FAC28000014
:100510003C8BFF1F04040400B82800002DE9F041C3
:1005200082B001F0A9FD2A2802D002B0BDE8F08116
:10053000274C23685B680C222649204698472046B2
:1005400000F01AFE244B1B680193DDF804800024A0
:10055000224D214F1E4EC4F17801281901F0EAFD09
:100560000444772C0AD83B680093009BA3EB080354
:10057000B2689342EFD3164B01221A73A046144D72
:100580002B685B681422164928469847214628465E
:1005900000F045FE284600F0EFFD104D6C1E05F101
:1005A0007707C5F101050F4E291914F8013F1A020A
:1005B00042EA03421A43304600F022FAA742F3D13E
:1005C000B8F1780FB1D1074800F0A8F9ADE700BF46
:1005D0002489FF1FD82800006C8BFF1FFC89FF1F98
:1005E000E82800003C8BFF1F00B583B00223009376
:1005F000044B054A0A21054800F026F803B05DF8CF
:1006000004FB00BFFC89FF1F0082FF1F3C8BFF1F04
:1006100008B5064B1A79064BDA7700F0E3FF054B75
:100620001860054B00221A7008BD00BF5C8BFF1FCD
:1006300000800040408BFF1F3D8BFF1F10B504461C
:1006400000F044FD204610BD10B4064C2180064940
:100650000A60064A13609DF80420054B1A7010BC0E
:10066000704700BF668BFF1F488BFF1F448BFF1F27
:10067000648BFF1F10B5954B1B7803F01F03052BF0
:10068000934B1C889ABF04EB4404E40064012246A7
:100690000021904B186802F021F88F4B1868002851
:1006A00000F0E2802246002102F018F88B4BFF2276
:1006B000C3F8C8200121022000F054FF01210E20C0
:1006C00000F050FF0121072000F04CFF012108201D
:1006D00000F048FF0121062000F044FF0121142012
:1006E00000F040FF0121152000F03CFF0121052012
:1006F00000F038FF754B1B7803F0C0037848794A47
:10070000402B08BF1046784A002111605160774B9A
:1007100003EB5003B3FBF0F3581E90600820106009
:100720006920D0605061C3EB0310C0F397101061D3
:10073000B02000FB03F31B0A93616D4B6D4A9A6472
:100740006D4B1A686D4810601B689980D9606C4ABF
:100750001A619982996101229A60D980DA8B12F428
:10076000004F40F08680B4F5004F02D2A2B2DA8387
:10077000DA829A8B92B242F008029A83554B19683A
:10078000604B1A6811601B6801229A809A6062426D
:10079000DA60A2B2DA83DA825B49196100219982B8
:1007A0009961D980D98B11F4004F72D1B4F5004F03
:1007B00001D2DA83DA82998B89B241F008019983F8
:1007C000524B19684D4808601B6800219980D96018
:1007D0004F4818619982996101209860D980D98B1E
:1007E00011F4004F63D1B4F5004F01D2DA83DA82FD
:1007F0009A8B92B242F008029A839A8B92B242F09C
:1008000002029A833C4A137903F1804303F50433CF
:1008100000201870B22119703A490B7903F1804316
:1008200003F504331870A2241C70384C237903F1AB
:10083000804303F504331870A3201870204600F09D
:100840005DFC227902F11001324B334843F821005C
:10085000531103F1382340339B0002F01F020121A2
:1008600001FA02F21A6010BD1A4B1A681A4B1A608C
:100870001CE7B4F5007FBFF47CAFD98BA2B201F4C2
:100880007E411143D983D98A01F47E410A43DA8239
:100890006FE7B4F5007F8ED2D98B01F47E4111430E
:1008A000D983D98A01F47E411143D98283E7B4F513
:1008B000007F9DD2D98B01F47E411143D983D98A1F
:1008C00001F47E410A43DA8292E700BF648BFF1F86
:1008D000668BFF1F488BFF1F448BFF1F00F00F40EC
:1008E00000350C00801A060000800B4000512502E4
:1008F00000A00440000301004C8BFF1F2089FF1F54
:10090000C4F00F40548BFF1FC0F00F405C8BFF1FE3
:10091000C8F00F400084FF1F1106000010B52C4ADC
:100920001378002BFCD12B4B19682B4B1868814294
:100930000CD02A4B1B7803F01F03052B42D8284B01
:100940001A8802EB4202D20000F07EFC254C00F037
:1009500049FE2368C01AB0F5967FF8D3224B2822AF
:10096000DA605A611B6972B61F494A689A42FCD91B
:100970001D494A689A42FCD81B494A689A42FCD3EE
:10098000194B00221A605A60114A01211170174A4E
:100990004FF48021C2F8A0102821D960DA686922BA
:1009A000DA60596159695A61114A1179114AD1764F
:1009B00011490979D17611490979D17608221A604D
:1009C00062B610BD064B1A88520100F03DFCBDE72F
:1009D0003D8BFF1F448BFF1F488BFF1F648BFF1F46
:1009E000668BFF1F408BFF1F00800B4000A0044060
:1009F0004C8BFF1F00800040548BFF1F5C8BFF1F40
:100A000030B5794B1B7803F01F00052800F2CB802E
:100A100003F00703013B042B0DD8DFE803F0039F2D
:100A2000A9B0B90002F47F0013029BB2C2F30722FF
:100A3000134340EA03026D4B1B88B1FBF3FC03FB3D
:100A40001C1303EB43034FEAC30E69490C6804EB24
:100A5000C3034FF0013000FA0CF0C2F3C0519513FC
:100A600005F480752943551105F480352943150196
:100A700005F08075294301FA0CF154F80E5025EA6F
:100A80000005294344F80E10C2F3C041941204F447
:100A900080742143541004F480342143140204F080
:100AA0008074214301FA0CF15C6824EA00042143BC
:100AB0005960C2F3C031941104F480742143D4000E
:100AC00004F480342143140304F08074214301FAB8
:100AD0000CF19C6824EA000421439960C2F3C02110
:100AE000941004F480742143D40104F4803421432D
:100AF000140404F08074214301FA0CF1DC6824EA48
:100B000000042143D960C2F3C011940004F480743E
:100B10002143D40204F480342143140504F080748A
:100B2000214301FA0CF11C6924EA000421431961F4
:100B3000C2F3C001940104F480742143D40304F48B
:100B400080342143120602F080720A4302FA0CF24A
:100B5000596921EA00010A435A6130BD130203F4C6
:100B60007F03101200F47F400343D2B21A4362E7BE
:100B7000130403F47F03C2F30F221A435BE713024B
:100B800023F07F4323F0FF03C2F307421A4352E7E7
:100B900002F47F40130403F47F03C2F307421343BC
:100BA00040EA030247E7141213140638172800F22C
:100BB000F681DFE810F01F000E01190123012E015C
:100BC0003801290042014A01560163016F01780191
:100BD0007F01890193019D01A701B101BC01C701FA
:100BE000CF01DF01E90100BF648BFF1F668BFF1F90
:100BF000448BFF1F100280B240EA0363240404F414
:100C00007F04234343EA1262D84B1B88B1FBF3FCF9
:100C100003FB1C114FEA411ED54B1C6804EB41112C
:100C20004FF0013000FA0CF0930D03F48073550B74
:100C300005F480352B4343EAD273150905F080751E
:100C40002B4303FA0CF354F80E5025EA00052B430E
:100C500044F80E30C2F3C0634FEA924E0EF4807E29
:100C600043EA0E0302F0807423434FEA522E0EF43F
:100C7000803E43EA0E0303FA0CF34C6824EA000EAC
:100C800043EA0E034B60C2F3C0534FEA923E0EF4A8
:100C9000807E43EA0E034FEA521E0EF4803E43EA82
:100CA0000E034FEA021E0EF0807E43EA0E0303FAA3
:100CB0000CF38C6824EA000E43EA0E038B60C2F347
:100CC000C0434FEA922E0EF4807E43EA0E034FEAB1
:100CD000520E0EF4803E43EA0E034FEA022E0EF04F
:100CE000807E43EA0E0303FA0CF3CC6824EA000E7C
:100CF00043EA0E03CB60C2F3C0334FEA921E0EF4F8
:100D0000807E43EA0E034FEAC20E0EF4803E43EAB1
:100D10000E034FEA023E0EF0807E43EA0E0303FA12
:100D20000CF30C6924EA000E43EA0E030B61C2F3D4
:100D3000C0234FEA920E0EF4807E43EA0E034FEA80
:100D4000C21E0EF4803E43EA0E034FEA024E0EF03E
:100D5000807E43EA0E0303FA0CF34C6924EA000E8A
:100D600043EA0E034B61C2F3C0134FEA820E0EF446
:100D7000807E43EA0E034FEAC22E0EF4803E43EA21
:100D80000E034FEA025E0EF0807E43EA0E0303FA82
:100D90000CF38C6924EA000E43EA0E038B61C2F364
:100DA000C0034FEA821E0EF4807E43EA0E034FEA30
:100DB000C23E0EF4803E43EA0E03120602F0807239
:100DC000134303FA0CF3CA6922EA00021343CB610E
:100DD000C3E6100400F47F0040EA036302F47F409E
:100DE000034343EA12620FE713029BB243EA046330
:100DF00002F47F00034343EA126205E7100400F4A3
:100E00007F0040EA04601B029BB2034343EA126284
:100E1000FAE602F47F0343EA026302F47F400343ED
:100E200043EA1262F0E6D0B2000440EA02601B021C
:100E30009BB2034343EA1262E6E613029BB2E4B2BA
:100E40002343120C12041A43DEE6240404F47F0444
:100E50001B029BB2234322F47F0222F47F421A43F7
:100E6000D2E6100280B2DBB2034302F07F421343AA
:100E7000240404F47F0443EA0402C5E6100400F4E9
:100E80007F00E4B2204302F07F4202431B029BB288
:100E90001A43B9E6100400F47F00DBB2034302F00A
:100EA000FF221A43B0E690B240EA0363120E43EA0F
:100EB0000242A9E6100280B240EA0363E4B223438F
:100EC000120E43EA02429FE6D0B240EA04601B02DF
:100ED0009BB20343120E43EA024295E6100280B22F
:100EE00040EA0460DBB20343120E43EA02428BE69F
:100EF000E4B244EA02641B029BB22343120E43EAAB
:100F0000024281E602F47F4040EA0260DBB2034322
:100F1000120E43EA024277E6D0B240EA03632404A9
:100F200004F47F042343120E43EA02226CE6100409
:100F300000F47F0040EA0363E4B22343120E43EA65
:100F4000022261E602F0FF1343EA0463120E43EA51
:100F5000022259E6100400F47F0040EA0460DBB28C
:100F60000343120E43EA02224EE600BF668BFF1FC8
:100F7000448BFF1F02F47F0343EA0263E4B223437E
:100F8000120E43EA02223FE6DBB243EA0263240484
:100F900004F47F042343120E43EA022234E60022C3
:100FA00032E600BF70B5104E0021304600F038F830
:100FB0000E4D0F4C2A462146304601F089FB0D4E5E
:100FC0000021304600F02CF82A462146304601F038
:100FD0007FFB094E0021304600F022F82A462146C8
:100FE000304601F075FB70BD4C8BFF1F1C89FF1F45
:100FF0003D060000548BFF1F5C8BFF1F037903F03D
:10100000FC0202F1804202F50042D2F8000100BA6F
:10101000DB0003F01803D84000F00F007047FFFF1B
:1010200072B689B902687AB103790F2B0CD82549B9
:101030000988194111F0010F06D003F1007303F57F
:101040009063B2EB431F10D01E4B1988002341FA66
:1010500003F212F0010F0AD00133102BF7D162B660
:101060000023036010230371704762B6704710B409
:1010700001229A401143134A118062B6D9B201711C
:10108000114A146C44F002041464D46B44F002045A
:10109000D463A2F580228224146091769177117630
:1010A000D17703F1007303F590635B0103600022C5
:1010B0001A605A609A60DA601A615A619A61DA615C
:1010C00010BC7047688BFF1F0080044003790F2B12
:1010D0000FD8084A937672B60749037901229A40DD
:1010E0000B8823EA02030B8062B6102303710023EE
:1010F0000360704700800040688BFF1FF8B507460B
:101100000C4615460846FFF779FF06462846FFF7C6
:1011100075FF864205D33846FFF770FF864211D827
:10112000F8BD23792A7922712B7123682A682260FD
:101130002B603846FFF762FF06462046FFF75EFF4A
:10114000864207D23B7922793A7123713B68226843
:101150003A6023602046FFF751FF06462846FFF716
:101160004DFF8642DCD223792A7922712B712368C4
:101170002A6822602B60D3E700B583B040F60D23C8
:10118000ADF8043003685B68022201A9984703B0F8
:101190005DF804FB30B58BB02AB903681B68C9B28F
:1011A00098470BB030BD9646012A14BF96464FF0C3
:1011B0000A0EB9B930228DF825204FF0210C4BB121
:1011C0000CF1FF3C5FFA8CFC0CF128036B442D22E0
:1011D00003F8242C03685B68CCF1220201A9614466
:1011E0009847DEE74FF0210C744604E00CF1FF3C19
:1011F0005FFA8CFC1146B1FBFEF20EFB1212D2B26A
:10120000092A94BF30323732D2B20CF128056D442E
:1012100005F8242CB1FBF4F28C42E7D9CFE708B5EE
:101220000029BABF49422D2300230A22FFF7B2FF4B
:1012300008BD8160704708B5FFF70EF9FFF76EF93A
:1012400001F0E2F8FAE7FFFF01B441EA000313F00E
:1012500003036FD1403A41D351F8043B40F8043BBB
:1012600051F8043B40F8043B51F8043B40F8043B80
:1012700051F8043B40F8043B51F8043B40F8043B70
:1012800051F8043B40F8043B51F8043B40F8043B60
:1012900051F8043B40F8043B51F8043B40F8043B50
:1012A00051F8043B40F8043B51F8043B40F8043B40
:1012B00051F8043B40F8043B51F8043B40F8043B30
:1012C00051F8043B40F8043B51F8043B40F8043B20
:1012D00051F8043B40F8043B403ABDD2303211D3C0
:1012E00051F8043B40F8043B51F8043B40F8043B00
:1012F00051F8043B40F8043B51F8043B40F8043BF0
:10130000103AEDD20C3205D351F8043B40F8043BBF
:10131000043AF9D204320AD0D2071CBF11F8013BBB
:1013200000F8013B03D30B7803704B78437001BC8A
:10133000704700BF0C2A4AD310F0030311D0C3F149
:101340000403D21ADB071CBF11F8013B00F8013B74
:1013500007D311F8013B00F8013B11F8013B00F8FD
:10136000013B11F003033FF475AF30B4043AC91ADE
:10137000C3F1040C51F8044B022B19D0032B0BD0F2
:10138000240A51F8043B1D0644EA050440F8044BC6
:101390001C46043AF4D216E0240E51F8043B1D0218
:1013A00044EA050440F8044B1C46043AF4D20AE02F
:1013B000240C51F8043B1D0444EA050440F8044B96
:1013C0001C46043AF4D20432B1EB0C0130BC043AAE
:1013D000A0D3013A11F8013B00F8013BF9D20B7898
:1013E00003704B7843708B78837001BC704700BFEB
:1013F00008B50E4C636B13F4802F0ED1636B13F49E
:10140000806F0DD1636B13F4006F0CD1636B13F419
:10141000805FEFD000F00CF8ECE700F0E5F9EDE7C5
:1014200000F006F8EEE700F003F8EFE70080044074
:1014300008B5FFF7DDFFFFFF014B10221A80704750
:1014400000200540704730B58446084601390D46F6
:101450004FF0000E02E00EF1010E9C46BCFBF2F3D1
:1014600002FB13C3092B94BF30333733DBB274460E
:1014700005F8013FBCFBF2F36245ECD9631C00EBBD
:10148000030C0022C25496450EDD0A4611F8013FB6
:101490001CF8015D0D708CF800300232121A431AEC
:1014A000013B23449A42F0DB30BDFFFF034B002297
:1014B0005A615A60186010225A61704700D0034088
:1014C0007047FFFF10B582B04FF0E0234FF40002E9
:1014D000C3F808214FF08072C3F808214FF0007262
:1014E000C3F808214FF08062C3F808214FF0006272
:1014F000C3F80821194A0024546048F6FF70906030
:101500002823D3605361D3615362D3625363D3639F
:1015100053640921116002F5805254609060D360D9
:101520005361116002F5FE2254609060D3605361F4
:10153000116001F023F8FFF7C3FF094A1368009315
:10154000009B132BFAD900F0E5FC054A13680193C0
:10155000019BB3F5967FF9D302B010BD0080034024
:101560006C8BFF1F21283AD81D4B03EBC0035B682F
:10157000012919D0042925D0194A52F83020002019
:1015800082F8800219B94FF480721A6070470229FC
:1015900006D003290CBF4FF4817200221A607047F5
:1015A00040F203121A6070470D4A52F830200121B0
:1015B00082F880124FF4A2721A601A6822F0200298
:1015C0001A607047064A52F83020012182F88012D2
:1015D0004FF4A2721A601A6842F020021A60704733
:1015E0000029000072B64FF0E02293690C490868A8
:1015F000D2F8042D62B612F0806F02D0322B88BF71
:101600000130C3F58C3303F23F13064AA2FB0323D8
:101610004FF47A7202FB00F000EB1310704700BF2A
:101620006C8BFF1F398EE3380D4B1B7843F0020C97
:101630000C4A02EBCC0250600B4A1278002A14BF0D
:10164000C820882040EA0140064941F83C0082F069
:10165000010205490A7083F00103014A13707047C3
:10166000F08BFF1F0080FF1FF18BFF1F431E032B1A
:1016700012D872B6094A52F8230058B1416842F8AC
:101680002310074931F81320B0F800C0A2EB0C0278
:1016900021F8132062B6704700207047008CFF1FAE
:1016A000508CFF1F013803280DD872B6074B53F832
:1016B000203033B1002001305B68002BFBD162B6D3
:1016C00070470020FBE70020704700BF288CFF1FF9
:1016D00038B572B604231C4A1C4C10E008301B4A73
:1016E00002EBC30148601A4942F83310194A1378D3
:1016F000013B137062B625E00433142B1CD012F8A2
:10170000011B11F0080FF7D054F833100029E5D071
:1017100043F0010154F83150002DEDD108300B4B4E
:1017200003EBC10250600C4A43F83120094A137898
:10173000013B137062B605E062B6064B00221A70D8
:1017400000F072FC38BD00BF902A00000080FF1F2F
:1017500088004000588CFF1FC8004000421E032A2A
:1017600039D810B4400140F010001B4B034472B64E
:101770001A48805C03281BD8DFE800F02B140217FE
:101780000520164CA05401F108025A6013F0080F0E
:1017900014BFC8228822098842EA01421A6062B650
:1017A00010BC704708330220EBE708330420E8E759
:1017B0000B4B53F822303BB9094B43F82210094B2D
:1017C00043F8221062B6EBE7064B53F8223059601B
:1017D000F5E70320D5E770470080FF1F488CFF1F07
:1017E000288CFF1F388CFF1F2DE9F04F85B0A34CCC
:1017F000DFF88CA2A0E100BE00F0E4FDBEE1950898
:1018000004EBC50254F83530C3F383035268092B47
:1018100000F077820ED8013B012B00F28581994BB5
:10182000198842F22103994200F05382964B44F802
:10183000353079E10D2B40F077811168914B1960BB
:1018400052685A60904B44F8353000238F4803604B
:101850002361A3618E4B012018708BB240F281602E
:1018600083423CD8B3F5D06F80F0FC81B3F5817F23
:1018700000F0DD8112D940F20230834227D102F01C
:101880007F02042A00F3E981090C40F0E6811AF88E
:10189000223043F002030AF82230D4E1802B00F01A
:1018A000BB81822B43D102F07F02042A00F3BA816C
:1018B000784B0021197059701AF8223013F0020F7A
:1018C00000F01183734B01221A70022207E1B3F575
:1018D000A06F2CD100210846FFF7A6FE20E142F2BE
:1018E0002100834200F01C8110D942F22120834262
:1018F00019D192B2002A40F0A681674B1A68674B53
:101900001A60C1F30741664B19709CE1B3F5086F8B
:1019100000F0E080B3F5106F09D1C1F30741614BCE
:101920001970042511E042F221329342D2D05E4B6D
:101930000F2283F8C020F3E004EBC5035868083891
:1019400000F072FB0135142D05D054F8353013F03A
:10195000800FF7D0F0E7554FDFF85491DFF854814E
:10196000554B0193554B0293DFF854B1002606E026
:1019700089F8006009F10109524B9F4239D057F8AC
:10198000045B2DB128466D6800F04EFB002DF9D1A7
:1019900047F8046C4BF8046BCDF80C80D8F8005075
:1019A0002DB128466D6800F03FFB002DF9D1039B57
:1019B0001E6008F10408019B43F8046B0193029B2D
:1019C00023F8026B029399F80030023B032BD1D825
:1019D00001A252F823F000BF71190000E9190000BC
:1019E00071190000E91900004FF0010389F8003077
:1019F000C0E7354B00221A700425344F16461AE012
:101A000044F83560304A13780133137026E045F00E
:101A1000010344F833602C4A13780133137045F006
:101A2000020344F8336045F0030344F8336004359F
:101A3000142D00F0088117F8013B05F80A3013F067
:101A4000080FECD000F0D0FA03460028D8D00833B5
:101A500004EBC50253601E4B44F8353000F0C4FA65
:101A600002460028D3D045F00103083204EBC3013D
:101A70004A60054A44F83320D1E700BF0080FF1FC9
:101A8000C0200740208CFF1FC8004000F48BFF1FC0
:101A9000F18BFF1FF88BFF1F6C8BFF1F748CFF1FD8
:101AA000708CFF1F4C8CFF1F00200740008CFF1F15
:101AB000488CFF1F288CFF1F388CFF1F508CFF1F86
:101AC000108CFF1F108CFF1F588CFF1F902A0000E6
:101AD00088004000AA4B1A78AA4B1A700122AA4B20
:101AE000DE88964228BF16463746402E28BF40273C
:101AF000A44D39462846FFF797FD3D44F61B0FD00D
:101B00003746402E28BF402739462846FFF78CFD30
:101B10003D44F71B00F0D9809C4B1D609C4B1F80FF
:101B20009C4B012283F894209A4B012283F8942045
:101B3000984B082283F88020964B93F88030DDB2D2
:101B400013F0040F1ED08E4B1B78BBB1924B1A784A
:101B500002F0FF0332B1013BDBB28F4A1370002B5E
:101B60003FF449AE8D4B1A7802F0FF0332B1013BCE
:101B7000DBB28A4A1370002B3FF43EAE854B042241
:101B800083F8802015F0080F00F06581814B93F8F1
:101B90009030DAB21B093FF432AE960804EBC60768
:101BA0007968A1F10800013BDDB212F0080F40F0A6
:101BB000D08054F836301B0C21F8083C002B00F084
:101BC0004181002321F8063C41F8043C744B53F852
:101BD0002530002B00F02A81724B53F825305860D5
:101BE000704B43F82500704A32F8153031F8081C64
:101BF0000B4422F8153000F0F7F90346002800F0F6
:101C0000198108337B6017F0080F684B684A08BFDA
:101C1000134644F836308BE75A4B00221A705A703C
:101C200002225CE75B4B0F2283F8C02078E702F0CA
:101C30007F02042A0CDC090C0AD11AF8223023F0A6
:101C400002030AF8223000210846FFF7EDFC67E79F
:101C5000504B0F2283F8C02062E74E4B0F2283F8CF
:101C6000C0205DE7534B5D6855B3C1F30F4192B29D
:101C700002E00C335D681DB31E888E42F9D15E8888
:101C80009642F6D1080A03280CBF2A781A893E4BDF
:101C9000DF88974228BF17463E46402F28BF402680
:101CA00031462846FFF7C0FC3544BE1B7FF428AF01
:101CB0003F2F7FF635AF00212846FFF7B5FC2FE711
:101CC000344B0F2283F8C0202AE73F2E3FF624AF83
:101CD00026E72D4B9B885BB9374BD01D12F8011BB3
:101CE00003F8011F8242F9D1344B1B68862B04D0C4
:101CF00000210846FFF798FC98E5274B0F221A7041
:101D0000F6E7224B1E68B6B1DFF88480B8F80070A1
:101D10003D46402F28BF402529463046FFF784FC2A
:101D20002E447D1BADB2A8F8005015B93F2F98BFC7
:101D30000026164B1E60144B1B88B3F5A06F7FF472
:101D4000F3AE114B00225A709A78124B83F8982008
:101D5000EAE600F069F91A4B53F82530002B4DD014
:101D60005968174A42F8251003F108027A60154AAB
:101D7000525D032A2BD8DFE802F02735393D00BF3A
:101D80004C8CFF1FF88BFF1F208CFF1FF48BFF1F55
:101D9000F28BFF1F002007404D8CFF1F788CFF1F28
:101DA000008CFF1F108CFF1F508CFF1FC8004000CD
:101DB000880040003C2A0000678CFF1F688CFF1FD2
:101DC000288CFF1F488CFF1F484A0321515517F0EC
:101DD000080F14BFC82288221B8842EA034344F834
:101DE0003630A5E6414A02215155F0E73F4A052128
:101DF0005155ECE73D4A04215155E8E73B4B5B5D0B
:101E0000022B07D07FF694AE032B07D1374B01226C
:101E10005A558DE6354B00225A5589E617F0080FC2
:101E200014BF03220222314B5A5581E6304B43F84E
:101E30002500D5E6002344F836302E4A13780133C6
:101E4000137075E617F0080F2B4B2C4A08BF13468A
:101E500044F836306CE615F0010F16D115F0800FFE
:101E600039D115F0020F08D0254B93F88820D2B253
:101E700083F88820022283F8802015F0100F27D0E5
:101E80001F4B102283F8802022E01D4B022283F892
:101E9000942000211B4A11701B4A184810601B4CEB
:101EA000546090601A48D060116191610D2283F8EE
:101EB000C020FF2283F8882083F8802083F89810C0
:101EC00083F88C209F2283F88420012283F89420B9
:101ED00005B0BDE8F08F0A4B0D2283F8C0208022A8
:101EE00083F88020BDE70222F9E500BF488CFF1F80
:101EF000008CFF1F588CFF1FC80040008800400066
:101F000000200740F08BFF1F0080FF1F708BFF1F1A
:101F1000B08BFF1F08B500F0A5FB00231B491A4634
:101F200041F8332001EBC30042600133142BF7D199
:101F3000174A536B43F480235363144AC2F30721B7
:101F4000144B83F89C10C2F3074183F8B010120EB3
:101F500083F8B420FF2283F8802083F888201A7445
:101F6000012183F894100C4A0020107083F884102B
:101F70000A4B702183F849104FF0E0234FF40071B1
:101F8000C3F808111023137208BD00BF0080FF1FA3
:101F900000800440002007400021074000E400E0EA
:101FA00008B500F013F908BD08B500F091F808BDB8
:101FB00008B500F061F808BD08B500F0A7F808BD45
:101FC00008B500F0CFF908BD08B500F0A1F908BDCB
:101FD00008B50846114600F015F908BD08B50846D1
:101FE00000F08AF908BDFFFF72B60D4B1B68B3FA0B
:101FF00083F00B2811D84FF00042C24023EA0203BD
:10200000074A136062B6074A00EBC000C10002EB4A
:10201000C000002353504360704762B600207047F1
:102020003489FF1FBC85FF1F08B50E4BC31AB3F5DB
:10203000587F13D20C4A127812B10C4A127872B936
:1020400072B60B490B4AA2FB03231B094FF0004257
:1020500022FA03F30A6813430B6062B608BDFFF768
:1020600037FBFBE7BC85FF1F588CFF1F4C8CFF1F05
:102070003489FF1F398EE33810B5134B1B6863B1E9
:10208000114B18684388C218147A01885A1C91426F
:1020900010D901334380204610BD0C4B1B787BB117
:1020A0000320FFF7E3FA084B18600028E8D14FF04F
:1020B000FF34F0E7FFF7B8FF034B00221A60EAE7AE
:1020C0004FF0FF34E7E700BF5C8CFF1F4C8CFF1F15
:1020D00008B50C4B1B682BB10A4B1B685A8813447C
:1020E000187A08BD084B1B784BB10320FFF7BEFAE6
:1020F000044B18600028EFD14FF0FF30F1E74FF0AC
:10210000FF30EEE75C8CFF1F4C8CFF1F10B5074BB8
:102110009C88074B1B681BB11A885B88D31A1C4428
:102120000CB1204610BD00F06FF9FAE7508CFF1F8C
:102130005C8CFF1F2DE9F84F0D4600293ED0064666
:102140004FF00008DFF87C901F4C03270AE0384668
:10215000FFF78CFA206090B303884BB9FFF764FF58
:10216000F5E765B399F800304BB32368002BEED048
:10217000D4F800B0BBF802105B4633F808ABAAEB0A
:10218000010AAA4528BFAA46524619443046FFF71D
:102190005BF85644D044A5EB0A05BBF802309A44DC
:1021A0001FFA8AFAABF802A0BBF800305345D8D822
:1021B0005846FFF739FF00232360D2E788464046A0
:1021C000BDE8F88F4C8CFF1F5C8CFF1F0B4B1B78FE
:1021D00093B110B50A4B186820B1FFF725FF084BE3
:1021E00000221A60032401E0FFF71EFF2046FFF7DC
:1021F0003DFA0028F8D110BD704700BF4C8CFF1F7E
:102200005C8CFF1F2DE9F84F364B01221A708A466D
:10221000002962D004460D46334EDFF8D08099463F
:10222000334F31E098F8003013B148F6014B10E01D
:102230002C4B00221A704FF0FF301FE0BBF1010B56
:1022400017D03B78ABB900F0DFF898F80030002BDE
:10225000EED00420FFF726FA0728EFD8012389F8EB
:102260000030FFF7C1FE306088B9002389F80030E4
:10227000E4E71F4B01221A704FF0FF30BDE8F88FE2
:102280001C4B05221A7045B33368002BCAD00023BB
:102290003B7031684888C0F14002AA4228BF2A46F4
:1022A00001F1080300EB020CA1F802C0AD1A4AB11B
:1022B00001380344224414F8010B03F8010F94423F
:1022C000F9D114464B883F2BDAD940230B800420E8
:1022D000FFF744FA00233360D2E7024B00221A7062
:1022E0005046CBE7618CFF1F648CFF1F4C8CFF1F97
:1022F000608CFF1F788CFF1F00B583B08DF807003E
:1023000001210DF10700FFF77DFF03B05DF804FB2D
:1023100008B5114B01221A70104B1B6843B10F4BCB
:102320001B685888C0F140000B4B00221A7008BD92
:102330000B4B1B781BB90020074B1870F7E70420E4
:10234000FFF7B0F90728F6D8FFF74EFE034B1860E9
:102350000028E4D1EFE700BF618CFF1F648CFF1FF2
:102360004C8CFF1F134B1B781BB310B5124B012273
:102370001A70124B196869B10024114B1C704B88FC
:102380000B800420FFF7EAF90C4B1C600A4B00227B
:102390001A7010BDFFF728FE014630B1084B00222D
:1023A0001A700420FFF7DAF9F0E7054B01221A70E2
:1023B000ECE770474C8CFF1F618CFF1F648CFF1F84
:1023C000788CFF1F08B50D4B1B7853B90C4B19685F
:1023D00041B14B880B800420FFF7C0F9084B002265
:1023E0001A6008BDFFF700FE014618B10420FFF790
:1023F000B5F9F6E7034B01221A70F2E7618CFF1F73
:10240000648CFF1F788CFF1FF8B5394B1B78ABB17C
:10241000384A127892B9374A0121117013F0010F2E
:102420000DD1334B1B7813F0020F18D1314B002222
:102430001A702F4B1B7813F0040F29D1F8BDFFF74A
:1024400065FE48B92C4B1B78002BEAD0284A13783C
:1024500023F001031370E4E700F002F9F2E7274BE1
:102460001B78002BE2D00024254F244E04E00134D9
:102470003278E3B29A42D9D9E3B257F823502B68A5
:102480001B69284698470028F1D02B699847EEE74A
:102490001C4B1B68002BD1D0EFF30583002BCDD153
:1024A000EFF3108272B6174B1868A0B1164B1B7869
:1024B000ABB9154B01211970436912490B6093B1F7
:1024C0000021996102B962B6002444778368984775
:1024D0000D4B1C70B2E7002AB0D162B6AEE7002AFD
:1024E000ACD162B6AAE7094B00211960EAE700BF48
:1024F0003889FF1F798CFF1F382A00009C8CFF1F32
:10250000908CFF1F7C8CFF1F888CFF1F8C8CFF1F03
:10251000EFF3108272B6114B1868D0B170B51D463A
:102520000F4E002409E034600CE04477836898473C
:10253000EFF3108272B6286840B143692B60002B1C
:10254000F1D09C61002AF0D162B6EEE702B962B622
:1025500070BD0AB962B67047704700BF848CFF1F18
:10256000808CFF1F08B5FFF7D3FF08BD024A136830
:1025700001331360704700BF6C8BFF1F324B60222A
:102580001A70E1225A70314B1B78082B23D00A2B8A
:102590002BD00C2B2E4B0CBF15213D219960122204
:1025A000DA6003F500239960DA602A4B1B7833B3B5
:1025B0000123274A136202F500221362264B1B787F
:1025C000012B23D9042B2BD88423214A536202F5F3
:1025D0000022536220E01E4B012199601322DA6031
:1025E00003F500239960DA60DFE7194B1921996040
:1025F0001322DA6003F500239960DA60D5E700233F
:10260000134A136202F500221362D7E78023104AAF
:10261000536202F500225362104B01221A70704778
:10262000082B06D885230A4A536202F5002253621A
:10263000F2E7102B94BF86238723054A536202F5E5
:1026400000225362E8E700BF004007403989FF1FBE
:1026500000B003409D8CFF1F3A89FF1F9E8CFF1F17
:102660007047FFFF00B585B072B6164B70221A7026
:102670004122DA710F229A7180221A701A46137859
:1026800013F0800FFBD00F4B986862B60E4B984248
:102690003CBF00EB800040000A2201A9FEF7D3FEF8
:1026A00001A90A48002311F8012B22B120F8022FBA
:1026B00001330A2BF7D101335B00044A137005B0D4
:1026C0005DF804FB0000024080969800C889FF1F57
:1026D00003460846194600F053B800BF830730B5DB
:1026E00048D0541E002A3FD0CAB2034601E0013C44
:1026F0003AD303F8012B9D07F9D1032C2DD9CDB284
:1027000045EA05250F2C45EA054536D9A4F1100206
:1027100022F00F0C03F1200EE6444FEA121C03F1E5
:10272000100242E9045542E9025510327245F8D1CF
:102730000CF1010214F00C0F03EB021204F00F0C69
:1027400013D0ACF1040323F003030433134442F821
:10275000045B9342FBD10CF003042CB1C9B21C44BE
:1027600003F8011B9C42FBD130BD64461346002C8C
:10277000F4D1F9E703461446BFE71A46A446E0E75A
:1027800013460A460146022000F028B870B50D4EE7
:102790000D4D761BB61006D0002455F8043B0134CD
:1027A0009847A642F9D1094E094D761B00F072F9FF
:1027B000B61006D0002455F8043B01349847A642D1
:1027C000F9D170BDA02A0000A02A0000B02A0000A4
:1027D000A02A0000704700BF704700BF2DE9F047F6
:1027E000DFF874A00646DAF8000098460F469146D6
:1027F000FFF7F0FF194B1C6824B365681F2D24DC1C
:102800005EB96B1C0235DAF80000636044F825708D
:10281000FFF7E2FF0020BDE8F08704EB850101230C
:10282000C1F88890D4F88821AB401A43022EC4F82E
:102830008821C1F80881E4D1D4F88C211A43C4F866
:102840008C21DEE7064C1C60D7E7DAF80000FFF7C2
:10285000C3FF4FF0FF30DEE7E089FF1F348EFF1F1C
:10286000A48CFF1F024B13B1024800F005B870475B
:102870000000000085280000002301461A46184683
:10288000FFF7ACBF38B5074D074C2C1BA41005D083
:10289000013C55F8043D9847002CF9D1BDE838407B
:1028A00000F006B9000000000000000053746172DF
:1028B00074696E670000000053657474696E672068
:1028C000616C6C204C45447320746F2064696D20EA
:1028D000776869746500FFFF534F46205265636552
:1028E00069766564000000004E756D20627974653C
:1028F000732072656365697665643A2000FFFFFFA7
:102900004008FE4340A004404408FE4344A0044065
:102910000018FE4300C004403000FE4330900440E5
:102920003400FE43349004401C18FE431CC0044095
:102930001018FE4310C004400818FE4308C00440AD
:102940000C18FE430CC004400C10FE430CB00440B5
:102950001010FE4310B004401810FE4318B004409D
:102960001C10FE431CB004401410FE4314B004407D
:102970000418FE4304C004400010FE4300B00440AD
:102980000008FE4300A004400408FE4304A00440E5
:102990000C08FE430CA004400808FE4308A00440B5
:1029A0001418FE4314C004401818FE4318C0044015
:1029B0000410FE4304B004400810FE4308B0044075
:1029C0001400FE43149004404C08FE434CA0044005
:1029D0000420FE4304D004402410FE4324B00440ED
:1029E0002010FE4320B004402810FE4328B00440CD
:1029F0002C10FE432CB004400020FE4300D00440C5
:102A00004808FE4348A004401000FE4310900440D4
:102A10000000000000000000DD1F0000D11F0000CA
:102A2000C91F0000C11F0000B91F0000B11F000036
:102A3000A91F0000A11F000000FFFFFF0001000010
:102A40008089FF1F12000000000200003C89FF1F68
:102A500043000000000300009489FF1F00000000F5
:102A6000010309049889FF1F000000000203090404
:102A7000B089FF1F0000000003030904C889FF1F7D
:102A80000000000000000000000000000000000046
:102A900000151915F8B500BFF8BC08BC9E46704774
:102AA0006528000035040000E9050000A50F0000BE
:042AB000F8B500BFB6
:082AB4001CFCFF7F0100000083
:102ABC0000000000FF000000182A000000000000C9
:102ACC00E803000000000000FFFFFFFF010A040004
:102ADC0009024300020100C0320904000001020295
:102AEC000100052400100105240101010424020643
:102AFC0005240600010705820310004009040100AB
:102B0C00020A0000000705030240000007058402CA
:102B1C00400000001201100102000040C0168304A6
:102B2C007502010203010000040309041803540098
:102B3C00650065006E007300790064007500690023
:102B4C006E006F0016035500530042002000530026
:102B5C0065007200690061006C0000000C0300004D
:102B6C000000000000000000000000000000000059
:082B7C0000000000A08CFF1F07
:00000001FF
